:020000040800F2
:100000002873002021080008E5020008E702000824
:10001000EB020008EF020008F302000800000000F5
:10002000000000000000000000000000F7020008CF
:10003000F902000800000000018A000825060008F7
:100040003B0800083B0800083B0800083B08000884
:100050003B0800083B0800083B0800083B08000874
:100060003B0800083B0800083B0800083B08000864
:100070003B0800083B0800083B0800083B08000854
:100080003B0800083B0800083B0800083B08000844
:100090003B0800083B0800083B0800083B08000834
:1000A0003B0800083B0800083B0800083B08000824
:1000B0003B0800083B0800083B0800083B08000814
:1000C0003B0800083B0800083B0800083B08000804
:1000D0003B080008950700083B0800083B0800089B
:1000E0003B0800083B0800083B0800083B080008E4
:1000F0003B0800083B0800083B0800083B080008D4
:100100003B0800083B0800083B0800083B080008C3
:100110003B0800083B0800083B0800083B080008B3
:100120003B0800083B0800083B0800083B080008A3
:10013000DFF80CD008F068FD00480047A90100086E
:1001400028730020002401F072F9054629463AA0E0
:1001500008F06CFD08E0641C21463DA008F066FD37
:100160004FF47A7003F0F4FCF5E7002401F05FF936
:100170000546294630A008F059FD08E0641C2146D8
:1001800038A008F053FD4FF47A7003F0E1FCF5E776
:1001900009E03A480068C0433949C1F894014FF476
:1001A0007A7003F0D5FCF4E71CB500F043FA4FF485
:1001B000A06000F047FB4FF4E13000F09FFA00F040
:1001C0008DF900F0B1F908F041FC03F0CBFC1420EC
:1001D0004FF480710023AFF24702CDE9001029A14E
:1001E0002B4801F0ECF910B12AA008F01FFD1420F3
:1001F0004FF480710023AFF2B302CDE900102BA1C0
:100200002D4801F0DCF910B12CA008F00FFD1420EE
:100210004FF480710023AFF2AD02CDE900102DA1A3
:100220002F4801F0CCF910B124A008F0FFFC03F036
:100230009DFC00201CBD00006B65726E656C207615
:10024000657273696F6E2069732025730A00000060
:100250007461736B2072756E206E756D20697320EA
:1002600025640A007461736B312072756E206E759F
:100270006D2069732025640A0000000094812142EA
:10028000008021424C45445F5441534B0000000024
:10029000000000204C6564207461736B20637265FC
:1002A000617465206661696C640A0000546573744A
:1002B0005F5461736B000000040000205465737488
:1002C000207461736B206372656174652066616977
:1002D0006C640A0054657374315F5461736B000081
:1002E00008000020704700BFFEE700BFFEE700BF28
:1002F000FEE700BFFEE77047704700000CB5002026
:10030000019000906C48006840F480306A490860B1
:1003100000BF6948006800F4003000900198401C5C
:100320000190009818B90198B0F5A06FF1D162481A
:10033000006800F4003010B10120009001E00020BE
:1003400000900098012843D15C48006840F01000FC
:100350005A4908600846006820F003000860084613
:10036000006840F002000860534840685249486005
:100370000846406848600846406840F4806048602D
:100380000846406820F47C1048600846406840F405
:10039000E81048600846006840F08070086000BFC0
:1003A0004548006800F000700028F9D042484068D5
:1003B00020F00300404948600846406840F00200D1
:1003C000486000BF3C48406800F00C000828F9D1A4
:1003D0000CBD10B5FFF792FF10BD10B53648006890
:1003E00040F001003449086008464068344908403C
:1003F0003149486008460068324908402E49086083
:100400000846006820F4802008600846406820F410
:10041000FE0048604FF41F008860FFF7DAFF4FF0DE
:1004200000602949086010BD10B50021002000229D
:10043000214B5B6803F00C0121B1042906D0082987
:1004400028D107E0214B224C236027E01F4B204C92
:10045000236023E0184B5B6803F47010164B5B6855
:1004600003F48032022303EB904022B9194B43433B
:10047000174C23600DE0104B5B6803F4003323B18D
:10048000144B4343124C236003E0104B4343104C86
:10049000236003E00D4B0E4C236000BF00BF064BF2
:1004A0005B68C3F303130C4CE15C094B1B68CB4046
:1004B000074C236010BD00000010024000200240E5
:1004C0000000FFF8FFFFF6FE08ED00E000127A00E2
:1004D0000C00002000093D001000002008B501219B
:1004E000482000F039FD2020ADF8000010208DF8E4
:1004F000030003208DF802006946094800F070FAF5
:100500002021074800F019FB2020ADF800006946C3
:10051000044800F065FA2021024800F00EFB08BDF7
:10052000000C01400018014008B50121442000F0F2
:1005300013FD1C20ADF8000048208DF8030069462B
:10054000354800F04DFA0120ADF8000028208DF864
:1005500003006946314800F043FA08BD10B504466F
:1005600014B101202E4908702D480078002837D09A
:100570001021294800F0C7FA78B10821264800F078
:10058000C2FA50B10421244800F0BDFA28B101217B
:10059000224800F0B8FA012822D10A2000F08EF893
:1005A00000201F49087010211B4800F0ACFA08B960
:1005B000012010BD0821184800F0A5FA08B9022052
:1005C000F7E70421144800F09EFA08B90320F0E789
:1005D0000121124800F097FA01281BD10420E8E716
:1005E00010210D4800F08FFA012813D108210A4884
:1005F00000F089FA01280DD10421074800F083FAA0
:10060000012807D10121054800F07DFA10B9012029
:10061000034908700020CCE70018014000080140A1
:100620002000002010B505F053F803F0EDFF05F0B1
:100630005FF810BD10B5042000F053F9254800689C
:100640002549B0FBF1F0254908702248006822498D
:10065000B0FBF1F442F2107044434FF0E020006927
:1006600040F002004FF0E021086108464461006953
:1006700040F00100086110BD70B5034600224FF044
:10068000E0267569154E367803FB06F44FF0E02638
:10069000B16910E04FF0E026B06988420BD0884283
:1006A00002D20E1A324402E02E1A0E44324401469F
:1006B000A24200D300E0EDE700BF70BD30B50446B4
:1006C000002504E04FF47A70FFF7D6FF6D1CA542B9
:1006D000F8D330BD0C00002040420F002100002064
:1006E00000BF704700BF4A4A128802F04002002A49
:1006F000F9D0C2B2464B1B1D1A80704710B586B0A8
:100700000446012144F2040000F026FC4FF400707E
:10071000ADF8140003208DF8160018208DF817008E
:1007200005A93C4800F05CF94FF48060ADF8140076
:1007300004208DF8170005A9364800F051F925204E
:100740008DF8000003208DF801008DF802000120D3
:100750008DF80300684600F07AF801940020ADF8A7
:100760000800ADF80A00ADF80C00ADF810000C2040
:10077000ADF80E0001A9264800F095FC012240F2D8
:100780002551234800F027FD0121214800F017FDE5
:1007900006B010BD10B540F225511D4800F000FE16
:1007A00010B31B4800F07CFDC4B21B48008800F465
:1007B0000040C8B91848008800F4804060B10A2C95
:1007C00003D000201449088020E01348008840F43A
:1007D00000401149088019E00D2C06D10E48008810
:1007E00040F480400C49088010E00B480088C0F3BA
:1007F0000D000A490C5408480088401C064908802E
:1008000008460088C72801DD0020088010BD0000D0
:10081000003801400008014028000020AC00002002
:100820000648804706480047FEE7FEE7FEE7FEE78A
:10083000FEE7FEE7FEE7FEE7FEE7FEE7DB03000874
:100840003101000831490143314A1160704770B5E8
:10085000002100230F22C47804B32D4C246804F433
:10086000E064C4F5E064210AC1F10403CA4044789D
:1008700004FA03F18478144021430901254C0678D9
:10088000A155047804F01F050124AC4005786D11D2
:10089000AD0005F1E025C5F8004109E0047804F059
:1008A0001F050124AC401C4D0678761145F8264002
:1008B00070BD1A4A0A400243154B1B1F1A6070474D
:1008C00039B1134A121D12680243114B1B1D1A60E5
:1008D00006E00F4A121D126882430D4B1B1D1A6061
:1008E0007047042808D14FF0E021096941F0040164
:1008F0004FF0E022116107E04FF0E021096921F09B
:1009000004014FF0E0221161704700000000FA0579
:100910000CED00E000E400E080E100E080FFFF1F5C
:1009200010B50446CC48844208D10121042000F0CF
:100930002DFB0021042000F029FB46E0C74884423B
:1009400008D10121082000F021FB0021082000F03F
:100950001DFB3AE0C248844208D10121102000F07A
:1009600015FB0021102000F011FB2EE0BD48844251
:1009700008D10121202000F009FB0021202000F0F7
:1009800005FB22E0B848844208D10121402000F054
:10099000FDFA0021402000F0F9FA16E0B348844245
:1009A00008D10121802000F0F1FA0021802000F020
:1009B000EDFA0AE0AE48844207D10121801500F02B
:1009C000E5FA0021A01500F0E1FA10BD10B50121F3
:1009D000084600F0DBFA0021012000F0D7FA10BD34
:1009E0002DE9F041024600250026002000230024C6
:1009F000002791F803C00CF00F0591F803C00CF02C
:100A0000100CBCF1000F03D091F802C04CEA0505B0
:100A100091F800C0BCF1000F31D0146800202BE029
:100A20004FF0010C0CFA00F3B1F800C00CEA030619
:100A30009E4220D183004FF00F0C0CFA03F7BC4309
:100A400005FA03FC4CEA040491F803C0BCF1280F3A
:100A500006D14FF0010C0CFA00FCC2F814C00AE0F9
:100A600091F803C0BCF1480F05D14FF0010C0CFA0E
:100A700000FCC2F810C0401C0828D1D31460B1F8A3
:100A800000C0BCF1FF0F34DD546800202EE000F1FF
:100A9000080C4FF0010808FA0CF3B1F800C00CEA9A
:100AA00003069E4221D183004FF00F0C0CFA03F78E
:100AB000BC4305FA03FC4CEA040491F803C0BCF102
:100AC000280F05D100F1080C08FA0CF8C2F81480C0
:100AD00091F803C0BCF1480F07D100F1080C4FF0AA
:100AE000010808FA0CF8C2F81080401C0828CED380
:100AF0005460BDE8F0814FF6FF71018002218170E2
:100B00000421C17070470246002093680B400BB16E
:100B1000012000E0002070470146886880B27047DD
:100B200002460020D3680B400BB1012000E00020FA
:100B300070470146C86880B27047016170474161E3
:100B400070470AB1016100E041617047C1607047C0
:100B50004FF480320A4382618161826182698269D5
:100B6000704702460020434B18684FF680731840C8
:100B700040EA021008433F4B186070473E49C86185
:100B80007047F0B50A46002300240021002500F03C
:100B90000046B6F1004F02D1364EF16901E0354E04
:100BA0007168C0F3034583B200F44016B6F5401FE8
:100BB00008D121F070612F4E766826F070662D4FB7
:100BC0007E6012E000F48016B6F5801F06D1032681
:100BD00006FA05F4A14341F0706106E0460D3601C6
:100BE00003FA06F6B14341F0706122B1460D3601B9
:100BF00003FA06F6314300F00046B6F1004F02D189
:100C00001C4EF16101E01B4E7160F0BD30B5002259
:100C10008B071C0F0F2303FA04F2164B08338C10BA
:100C200053F824309343134C08348D1044F8253086
:100C300023468C1053F824308C07240F00FA04F458
:100C400023430C4C08348D1044F8253030BD0A493C
:100C5000DC3108607047000000080140000C0140D2
:100C6000001001400014014000180140001C014028
:100C7000002001400000014000002042DF480068E1
:100C800040F00100DD49086008464068DC49084042
:100C9000DA49486008460068DA490840D7490860E0
:100CA0000846006820F4802008600846406820F468
:100CB000FE0048604FF41F0088607047CF49096804
:100CC00021F48031CD4A11601146096821F4802158
:100CD0001160B0F5803F03D0B0F5802F0ED106E053
:100CE000C649096841F48031C44A116007E0C3492C
:100CF000096841F4A021C14A116000E000BF00BFB3
:100D0000704710B501460022002300204A11012A35
:100D100002D1BA4C236806E0022A02D1B74C236AFA
:100D200001E0B64C636A01F01F02012494401C40AC
:100D30000CB1012000E0002010BD38B5002000906B
:100D40000024002500BF3120FFF7DBFF0546009897
:100D5000401C00900098B0F5A06F01D0002DF2D09B
:100D60003120FFF7CEFF08B1012400E00024204627
:100D700038BD01460020A14A106820F0F80040EA82
:100D8000C10010607047A04908607047024600200B
:100D90009A4B586820F47C1042EA01031843974BA1
:100DA0005860704798490866704701460020934A8A
:100DB000506820F003000843506070478F48406837
:100DC00000F00C007047014600208C4A506820F06B
:100DD000F00008435060704701460020874A506881
:100DE00020F4E06008435060704701460020834AC9
:100DF000506820F4605040EAC1005060704729B14B
:100E00007E4A527A02437D4B5A7204E07B4A527A00
:100E100082437A4B5A7270477B49D83108607047D9
:100E200001460020754A506820F440400843506055
:100E300070470021714A20321170704A82F82010E8
:100E4000012802D004280AD104E001216B4A203293
:100E5000117005E00521694A2032117000E000BFE1
:100E600000BF70476949086070476449096A0143D7
:100E7000624A11627047654944390860704730B56D
:100E800000210022002400235C4D6D6805F00C0158
:100E900021B1042905D0082923D105E05C4D056066
:100EA00022E05B4D05601FE0544D6D6805F4701243
:100EB000524D6D6805F48034022505EB92421CB951
:100EC000544D554305600BE04C4D6D6805F40035FD
:100ED0001DB1504D5543056002E04D4D5543056031
:100EE00002E04B4D056000BF00BF444D6D6805F04A
:100EF000F0010909484D6B5C0568DD4045603F4DD8
:100F00006D6805F4E061090A434D6B5C4568DD409E
:100F100085603A4D6D6805F46051C90A3E4D6B5CC1
:100F20004568DD40C560354D6D6805F44041890B6D
:100F30003A4D6B5CC568B5FBF3F5056130BD29B171
:100F40002E4A526902432D4B5A6104E02B4A5269E2
:100F500082432A4B5A61704729B1284A9269024359
:100F6000264B9A6104E0254A92698243234B9A6199
:100F7000704729B1214AD2690243204BDA6104E06B
:100F80001E4AD26982431D4BDA61704729B11B4A60
:100F9000D2680243194BDA6004E0184AD2688243EF
:100FA000164BDA60704729B1144A12690243134B99
:100FB0001A6104E0114A12698243104B1A617047AA
:100FC00012494039086070470F49C86470470B499F
:100FD000C87170470948406A40F08070074948620C
:100FE000704701460020054A92680A400AB1012074
:100FF00000E00020704701498872704700100240ED
:101000000000FFF8FFFFF6FE00004242800442426B
:1010100000127A0000093D002A0000203A0000205A
:1010200010B50446FB48844209D101218803FFF72B
:10103000ADFF00214FF48040FFF7A8FF32E0F648F3
:10104000844209D101214804FFF7ADFF00214FF48C
:101050000030FFF7A8FF25E0F048844209D10121C4
:101060008804FFF7A0FF00214FF48020FFF79BFFCB
:1010700018E0EB48844209D10121C804FFF793FF2F
:1010800000214FF40020FFF78EFF0BE0E54884427B
:1010900008D101210805FFF786FF00214FF48010D9
:1010A000FFF781FF10BD2DE9F04786B005460E46DB
:1010B0000024A24600BFA1460027B08900B100BFAE
:1010C0002F462C8A4CF6FF700440F08804432C8293
:1010D000AC894EF6F3100440B08831890843718919
:1010E00008430443AC81AC8A4FF6FF400440B0890A
:1010F0000443AC8201A8FFF7C2FEC648874202D172
:10110000DDF810A001E0DDF80CA0A88900F4004093
:1011100040B10AEBCA0000EB0A1031684900B0FB8D
:10112000F1F807E00AEBCA0000EB0A103168890009
:10113000B0FBF1F86420B8FBF0F004012009642151
:1011400001FB1089A88900F4004040B1322000EB77
:10115000C900B0FBF1F000F00700044308E03220C2
:1011600000EB09106421B0FBF1F000F00F00044324
:101170002C8106B0BDE8F0874FF4165101600021C4
:101180008180C18001810C214181002181817047D2
:1011900010B502460020108A4FF2FF0318400B885A
:1011A0004C8823438C882343CC88234318431082E4
:1011B00010BD0021018041808180C180704721B134
:1011C000828942F40052828104E082894DF6FF73E5
:1011D0001A4082817047F0B503460024002600259E
:1011E000002040F66A17B94200D100BF1846C1F38B
:1011F000421401F01F06012707FA06F5012C01D160
:101200000C3004E0022C01D1103000E014301AB18F
:1012100007682F43076002E00768AF430760F0BD2F
:101220001AB1838A0B43838202E0838A8B438382D1
:101230007047028A4FF6F0731A400282028A0A430C
:101240000282704782894FF2FF731A40828182893D
:101250000A438281704721B1828942F00202828171
:1012600004E082894FF6FD731A4082817047028A3A
:101270004FF6DF731A400282028A0A4302827047E5
:1012800021B1028A42F48042028204E0028A4BF6D3
:10129000FF731A4002827047C1F3080282807047D0
:1012A00001468888C0F308007047818941F0010138
:1012B00081817047028BD2B20283028B42EA012203
:1012C00002837047028B02F47F420283028B0A433F
:1012D0000283704721B1828A42F02002828204E0B8
:1012E000828A4FF6DF731A408282704721B1828A68
:1012F00042F01002828204E0828A4FF6EF731A40B5
:101300008282704721B1828A42F00802828204E020
:10131000828A4FF6F7731A408282704721B1828920
:1013200042F40042828103E08289C2F30E0282818C
:10133000704721B1828A42F40062828204E0828A8C
:101340004FF2FF731A4082827047828A4FF6FB7316
:101350001A408282828A0A438282704721B1828A3D
:1013600042F00202828204E0828A4FF6FD731A4044
:101370008282704702460020B1F5007F00D100BF95
:1013800013880B400BB1012000E00020704701F4EE
:101390000072B2F5007F00D100BFCA4302807047DF
:1013A00070B50246002400230025002040F66A168E
:1013B000B14200D100BFC1F3421501F01F03012665
:1013C00006FA03F3012D02D19689334006E0022D7F
:1013D00002D1168A334001E0968A33400C1201266E
:1013E00006FA04F41688344013B10CB1012000E071
:1013F000002070BD10B50022002340F66A14A142FF
:1014000000D100BF0A1201249440A3B2DC4304803F
:1014100010BD00000038014000440040004800407A
:10142000004C004000500040704764207047F7A017
:1014300070472DE9F04186B004460D4690461E46A1
:10144000002005900121B008CDE903510290002150
:101450000091202342460191214605A803F093FB09
:1014600007461FB9002006B0BDE8F08140F23111F7
:10147000781A8F4272D030DC692F7CD015DC092FAE
:101480007AD009DCA7F10200072877D2DFE800F064
:101490005A94945F5B6061000B2F71D0642F59D018
:1014A000652F58D0662F69D14EE0B7F5967F54D09E
:1014B00008DCC82F6BD0C92F6AD0CA2F69D0CB2FB8
:1014C0007AD149E0A7F22D10002863D0012862D01C
:1014D000022861D003286FD15FE040F2EF12811A39
:1014E000904241D017DCB0F5C67F39D009DC012825
:1014F00054D0C32855D0A0F22710D8B364285BD1AC
:101500002DE0A0F28D10C0B301282AD0022829D0E6
:10151000032851D127E0B1F5967F26D008DC0129B8
:1015200041D0642940D0C82939D0C92944D13FE0ED
:10153000A1F22D11D1B1012919D0022939D00329E5
:101540003AD132E000BF00BF6FF00D008BE700BF63
:1015500000BF00BF00BF00BF00BF00BF00BF00BF93
:1015600000BF00BF00BF00BF00BF00BF00BF6FF0E3
:10157000150078E714E006E008E013E01CE0FFE760
:101580006FF00A006FE76FF00B006CE700BF00BF61
:1015900000BF00BF00BF00BF00BF00BF00BF00BF53
:1015A00000BF00BF00BF00BF00BF4FF0FF305AE7D1
:1015B00000BF6FF00A0056E74FF0FF3053E72DE908
:1015C000F04786B00746884614461D46DDE90E9A68
:1015D00001214FEA9900CDE90341029000210091D9
:1015E0000AF0FF032A4601914146384603F0CBFA40
:1015F00006461EB9002006B0BDE8F08740F2311162
:10160000701A8E4272D030DC692E7CD015DC092E27
:101610007AD009DCA6F10200072877D2DFE800F0D3
:101620005A94945F5B6061000B2E71D0642E59D088
:10163000652E58D0662E69D14EE0B6F5967F54D00F
:1016400008DCC82E6BD0C92E6AD0CA2E69D0CB2E2A
:101650007AD149E0A6F22D10002863D0012862D08B
:10166000022861D003286FD15FE040F2EF12811AA7
:10167000904241D017DCB0F5C67F39D009DC012893
:1016800054D0C32855D0A0F22710D8B364285BD11A
:101690002DE0A0F28D10C0B301282AD0022829D055
:1016A000032851D127E0B1F5967F26D008DC012927
:1016B00041D0642940D0C82939D0C92944D13FE05C
:1016C000A1F22D11D1B1012919D0022939D0032954
:1016D0003AD132E000BF00BF6FF00D008BE700BFD2
:1016E00000BF00BF00BF00BF00BF00BF00BF00BF02
:1016F00000BF00BF00BF00BF00BF00BF00BF6FF052
:10170000150078E714E006E008E013E01CE0FFE7CE
:101710006FF00A006FE76FF00B006CE700BF00BFCF
:1017200000BF00BF00BF00BF00BF00BF00BF00BFC1
:1017300000BF00BF00BF00BF00BF4FF0FF305AE73F
:1017400000BF6FF00A0056E74FF0FF3053E710B5C7
:101750000446002003F0DBFD10BD10B503F09DFA38
:10176000406810BD0246012110E0012088402A4B4C
:101770001B68184048B901208840274B1B68184354
:10178000254B1860116000207047491E0029ECDAD3
:101790006FF01500F8E7022800D37047012181405F
:1017A0001D4A12688A431C490A6000BFF5E72DE90B
:1017B000F04104460D4603F070FA07462A462146DA
:1017C00003F0E6FE064616B90020BDE8F08140F2BF
:1017D0003111701A8E427FD038DC692E6CD01DDC3E
:1017E000092E6AD009DCA6F10200072867D2DFE8DB
:1017F00000F0679D9D6C686D6E000B2E7AD0642E94
:1018000066D0652E65D0662E59D15BE0414F532DD1
:10181000312E332E3200000040000020B6F5967FB6
:1018200059D008DCC82E6CD0C92E6BD0CA2E6AD015
:10183000CB2E7BD14EE0A6F22D10002864D00128DB
:1018400063D0022862D0032870D160E040F2EF122A
:10185000811A904246D017DCB0F5C67F3ED009DC35
:10186000012855D0C32856D0A0F2271030B36428E1
:101870005CD132E0A0F28D10D0B301282FD0022825
:101880002ED0032852D12CE0B1F5967F2BD008DC66
:10189000012942D0642941D0C8293AD0C92945D16B
:1018A00040E0A1F22D11F9B101291ED002293AD050
:1018B00003293BD133E00FE01FE021E02AE035E0CF
:1018C00000BF00BF6FF00D007FE700BF00BF00BF8B
:1018D00000BF00BF00BF00BF00BF00BF00BF00BF10
:1018E00000BF00BF00BF00BF00BF6FF015006CE776
:1018F00012E0FFE76FF00A0067E76FF00B0064E7A4
:1019000000BF00BF00BF00BF00BF00BF00BF00BFDF
:1019100000BF00BF00BF00BF00BF00BF00BF4FF04F
:10192000FF3052E700BF6FF00A004EE74FF0FF3084
:101930004BE738B504460020009003F0AEF90546A9
:101940006A46214603F03FFE009838BD10B50446B4
:1019500004B910BD204606F05EF900BFF9E770B586
:10196000044600250CB9002070BD04F0004060B9A9
:1019700044F0004006F0DBF80546039E3246294657
:10198000FB48006806F0ACF803E0204606F0CFF80C
:1019900005462846E8E770B5064616B96FF015000B
:1019A00070BD2820FFF7DBFF054615B96FF00B006F
:1019B000F6E7F0A1284604F018FE0446002C6ED08D
:1019C0002846FFF7C3FF40F23111601A8C4274D0F1
:1019D00030DC692C7CD015DC092C7AD009DCA4F130
:1019E0000200072877D2DFE800F05C9797615D621C
:1019F00063000B2C74D0642C5BD0652C5AD0662C01
:101A000069D150E0B4F5967F56D008DCC82C6ED072
:101A1000C92C6DD0CA2C6CD0CB2C7DD14BE0A4F25C
:101A20002D10002866D0012865D0022864D0032834
:101A300072D162E040F2EF12811A904243D017DC7B
:101A4000B0F5C67F3BD009DC012857D0C32858D059
:101A5000A0F22710D8B364285ED12FE0A0F28D1039
:101A6000C0B301282CD002282BD0032854D129E060
:101A7000B1F5967F28D008DC012944D0642943D0F1
:101A8000C8293CD0C92947D142E0A1F22D11E1B1CA
:101A900001291BD002293CD003293DD135E03EE08D
:101AA0000BE000BF00BF6FF00D0079E700BF00BF83
:101AB00000BF00BF00BF00BF00BF00BF00BF00BF2E
:101AC00000BF00BF00BF00BF00BF00BF05E017E0C0
:101AD00009E00BE016E01FE002E06FF015005FE7A1
:101AE0006FF00A005CE76FF00B0059E700BF00BF22
:101AF00000BF00BF00BF00BF00BF00BF00BF00BFEE
:101B000000BF00BF00BF00BF00BF4FF0FF3047E77E
:101B100000BF6FF00A0043E74FF0FF3040E7356049
:101B200000203DE710B5044604B910BD206804F05C
:101B30009DFD2068FFF70AFF0020206000BFF4E74A
:101B40002DE9F04105460E461DB96FF01500BDE8C0
:101B5000F081701C38B94FF0FF321346286804F04A
:101B600080FE04460AE03046002102F075FD07467B
:101B70003A460B46286804F074FE044640F285306D
:101B8000844200D100240CB90020E0E740F231117A
:101B9000601A8C4272D030DC692C7CD015DC092CA8
:101BA0007AD009DCA4F10200072877D2DFE800F040
:101BB0005A94945F5B6061000B2C71D0642C59D0F7
:101BC000652C58D0662C69D14EE0B4F5967F54D080
:101BD00008DCC82C6BD0C92C6AD0CA2C69D0CB2C9D
:101BE0007AD149E0A4F22D10002863D0012862D0F8
:101BF000022861D003286FD15FE040F2EF12811A12
:101C0000904241D017DCB0F5C67F39D009DC0128FD
:101C100054D0C32855D0A0F22710D8B364285BD184
:101C20002DE0A0F28D10C0B301282AD0022829D0BF
:101C3000032851D127E0B1F5967F26D008DC012991
:101C400041D0642940D0C82939D0C92944D13FE0C6
:101C5000A1F22D11D1B1012919D0022939D00329BE
:101C60003AD132E000BF00BF6FF00D006FE700BF58
:101C700000BF00BF00BF00BF00BF00BF00BF00BF6C
:101C800000BF00BF00BF00BF00BF00BF00BF6FF0BC
:101C900015005CE714E006E008E013E01CE0FFE755
:101CA0006FF00A0053E76FF00B0050E700BF00BF72
:101CB00000BF00BF00BF00BF00BF00BF00BF00BF2C
:101CC00000BF00BF00BF00BF00BF4FF0FF303EE7C6
:101CD00000BF6FF00A003AE74FF0FF3037E770B50A
:101CE000054615B96FF0150070BD286804F078FE40
:101CF000044640F28530844200D100240CB9002013
:101D0000F2E740F23111601A8C427CD034DC692C4D
:101D10006DD015DC092C6BD009DCA4F1020007287A
:101D200068D2DFE800F05E9C9C695F6A6B000B2C58
:101D300079D0642C63D0652C62D0662C5AD152E0E5
:101D4000B4F5967F5ED008DCC82C73D0C92C72D055
:101D5000CA2C71D0CB2C4DD153E0A4F22D10002809
:101D60006BD001286AD0022869D0032877D167E0B8
:101D700090000020414F530040F2EF12811A904230
:101D800047D017DCB0F5C67F3FD009DC012858D01A
:101D9000C32859D0A0F2271058B364285FD133E08C
:101DA000A0F28D1038B3012830D002282FD003289C
:101DB00055D12DE0B1F5967F2CD008DC012945D016
:101DC000642944D0C8293DD0C92948D143E0A1F2B3
:101DD0002D1101B301291FD002293DD003293ED185
:101DE00036E000BF00BF6FF00D007DE70BE01DE0A7
:101DF0001FE028E033E028E000BF00BF00BF00BFC5
:101E000000BF00BF00BF00BF00BF00BF00BF00BFDA
:101E100000BF00BF00BF00BF6FF0150064E702E025
:101E200008E008E008E06FF00A005DE76FF00B00E3
:101E30005AE700BF00BF00BF00BF00BF00BF00BF28
:101E400000BF00BF00BF00BF00BF00BF00BF00BF9A
:101E50004FF0FF3048E700BF6FF00A0044E74FF053
:101E6000FF3041E7014609B9002070470A680AB906
:101E70000020FAE70120F8E72DE9F04106460F4679
:101E80001EB96FF01500BDE8F0812420FFF767FD53
:101E9000054615B96FF00B00F5E73A46AFF22C1185
:101EA000284603F02BFD0446002C6ED02846FFF791
:101EB0004DFD40F23111601A8C4274D030DC692C37
:101EC0007CD015DC092C7AD009DCA4F102000728AB
:101ED00077D2DFE800F05C9797615D6263000B2CBE
:101EE00074D0642C5BD0652C5AD0662C69D150E03C
:101EF000B4F5967F56D008DCC82C6ED0C92C6DD0B6
:101F0000CA2C6CD0CB2C7DD14BE0A4F22D10002834
:101F100066D0012865D0022864D0032872D162E01F
:101F200040F2EF12811A904243D017DCB0F5C67F21
:101F30003BD009DC012857D0C32858D0A0F2271085
:101F4000D8B364285ED12FE0A0F28D10C0B3012871
:101F50002CD002282BD0032854D129E0B1F5967F4C
:101F600028D008DC012944D0642943D0C8293CD0BA
:101F7000C92947D142E0A1F22D11E1B101291BD0BD
:101F800002293CD003293DD135E03EE00BE000BF03
:101F900000BF6FF00D0076E700BF00BF00BF00BFBD
:101FA00000BF00BF00BF00BF00BF00BF00BF00BF39
:101FB00000BF00BF00BF00BF05E017E009E00BE075
:101FC00016E01FE002E06FF015005CE76FF00A001A
:101FD00059E76FF00B0056E700BF00BF00BF00BF1E
:101FE00000BF00BF00BF00BF00BF00BF00BF00BFF9
:101FF00000BF00BF00BF4FF0FF3044E700BF6FF0ED
:102000000A0040E74FF0FF303DE7356000203AE737
:1020100010B5044604B910BD206803F07AFC2068AE
:10202000FFF794FC0020206000BFF4E72DE9F041A9
:1020300005460E461DB96FF01500BDE8F081701C15
:1020400038B94FF0FF321346286803F088FD044684
:102050000AE03046002102F0FFFA07463A460B46F6
:10206000286803F07CFD04460CB90020E5E740F247
:102070003111601A8C4272D030DC692C7CD015DCB6
:10208000092C7AD009DCA4F10200072877D2DFE816
:1020900000F05A94945F5B6061000B2C71D0642C4B
:1020A00059D0652C58D0662C69D14EE0B4F5967F96
:1020B00054D008DCC82C6BD0C92C6AD0CA2C69D08B
:1020C000CB2C7AD149E0A4F22D10002863D001284E
:1020D00062D0022861D003286FD15FE040F2EF1296
:1020E000811A904241D017DCB0F5C67F39D009DCA7
:1020F000012854D0C32855D0A0F22710D8B36428A3
:102100005BD12DE0A0F28D10C0B301282AD00228A7
:1021100029D0032851D127E0B1F5967F26D008DCDD
:10212000012941D0642940D0C82939D0C92944D1D6
:102130003FE0A1F22D11D1B1012919D0022939D0E6
:1021400003293AD132E000BF00BF6FF00D0074E701
:1021500000BF00BF00BF00BF00BF00BF00BF00BF87
:1021600000BF00BF00BF00BF00BF00BF00BF00BF77
:102170006FF0150061E714E006E008E013E01CE0F2
:10218000FFE76FF00A0058E76FF00B0055E700BF5C
:1021900000BF00BF00BF00BF00BF00BF00BF00BF47
:1021A00000BF00BF00BF00BF00BF00BF4FF0FF3047
:1021B00043E700BF6FF00A003FE74FF0FF303CE716
:1021C00010B5044604B910BD206803F0B0FC00BF90
:1021D000F9E7014609B9002070470A680AB90020EA
:1021E000FAE70120F8E710B5044604B910BD2068ED
:1021F00003F0A9FC00BFF9E770B506460C4622467D
:10220000AFF29041304605F04CFE05460DB9002076
:1022100070BD40F23111681A8D4272D030DC692DE8
:102220007CD015DC092D7AD009DCA5F10200072845
:1022300077D2DFE800F05A94945F5B6061000B2D69
:1022400071D0642D59D0652D58D0662D69D14EE0DE
:10225000B5F5967F54D008DCC82D6BD0C92D6AD057
:10226000CA2D69D0CB2D7AD149E0A5F22D100028D6
:1022700063D0012862D0022861D003286FD15FE0CB
:1022800040F2EF12811A904241D017DCB0F5C67FC0
:1022900039D009DC012854D0C32855D0A0F227102A
:1022A000D8B364285BD12DE0A0F28D10C0B3012813
:1022B0002AD0022829D0032851D127E0B1F5967FF2
:1022C00026D008DC012941D0642940D0C82939D062
:1022D000C92944D13FE0A1F22D11D1B1012919D072
:1022E000022939D003293AD132E000BF00BF6FF094
:1022F0000D008DE700BF00BF00BF00BF00BF00BFE3
:1023000000BF00BF00BF00BF00BF00BF00BF00BFD5
:1023100000BF00BF6FF015007AE714E006E008E0A8
:1023200013E01CE0FFE76FF00A0071E76FF00B00AD
:102330006EE700BF00BF00BF00BF00BF00BF00BF0F
:1023400000BF00BF00BF00BF00BF00BF00BF00BF95
:102350004FF0FF305CE700BF6FF00A0058E74FF026
:10236000FF3055E710B5044604B910BD206805F0EC
:10237000B8FD0020206000BFF7E72DE9FC5F0546AF
:10238000894692469B460C9E1DB96FF01500BDE82C
:10239000FC9F701C58B94FF0FF31009101915B46D2
:1023A00052464946286805F0EBFD04460CE03046ED
:1023B000002102F051F9CDE900015B465246494641
:1023C000286805F0DDFD04460CB90020DFE740F287
:1023D0003111601A8C4272D030DC692C7CD015DC53
:1023E000092C7AD009DCA4F10200072877D2DFE8B3
:1023F00000F05A94945F5B6061000B2C71D0642CE8
:1024000059D0652C58D0662C69D14EE0B4F5967F32
:1024100054D008DCC82C6BD0C92C6AD0CA2C69D027
:10242000CB2C7AD149E0A4F22D10002863D00128EA
:1024300062D0022861D003286FD15FE040F2EF1232
:10244000811A904241D017DCB0F5C67F39D009DC43
:10245000012854D0C32855D0A0F22710D8B364283F
:102460005BD12DE0A0F28D10C0B301282AD0022844
:1024700029D0032851D127E0B1F5967F26D008DC7A
:10248000012941D0642940D0C82939D0C92944D173
:102490003FE0A1F22D11D1B1012919D0022939D083
:1024A00003293AD132E000BF00BF6FF00D006EE7A4
:1024B00000BF00BF00BF00BF00BF00BF00BF00BF24
:1024C00000BF00BF00BF00BF00BF00BF00BF00BF14
:1024D0006FF015005BE714E006E008E013E01CE095
:1024E000FFE76FF00A0052E76FF00B004FE700BF05
:1024F00000BF00BF00BF00BF00BF00BF00BF00BFE4
:1025000000BF00BF00BF00BF00BF00BF4FF0FF30E3
:102510003DE700BF6FF00A0039E74FF0FF3036E7C4
:102520002DE9F04105460E4617461DB96FF015001E
:10253000BDE8F0813A463146286805F041FE044680
:102540000CB90020F4E740F23111601A8C4272D0CD
:1025500030DC692C7CD015DC092C7AD009DCA4F1A4
:102560000200072877D2DFE800F05A94945F5B609E
:1025700061000B2C71D0642C59D0652C58D0662C7E
:1025800069D14EE0B4F5967F54D008DCC82C6BD0EE
:10259000C92C6AD0CA2C69D0CB2C7AD149E0A4F2DC
:1025A0002D10002863D0012862D0022861D00328B2
:1025B0006FD15FE040F2EF12811A904241D017DCF8
:1025C000B0F5C67F39D009DC012854D0C32855D0D6
:1025D000A0F22710D8B364285BD12DE0A0F28D10B3
:1025E000C0B301282AD0022829D0032851D127E0DE
:1025F000B1F5967F26D008DC012941D0642940D06E
:10260000C82939D0C92944D13FE0A1F22D11D1B157
:10261000012919D0022939D003293AD132E000BF6B
:1026200000BF6FF00D0083E700BF00BF00BF00BF19
:1026300000BF00BF00BF00BF00BF00BF00BF00BFA2
:1026400000BF00BF00BF00BF6FF0150070E714E0CF
:1026500006E008E013E01CE0FFE76FF00A0067E720
:102660006FF00B0064E700BF00BF00BF00BF00BFFA
:1026700000BF00BF00BF00BF00BF00BF00BF00BF62
:1026800000BF00BF4FF0FF3052E700BF6FF00A00FD
:102690004EE74FF0FF304BE72DE9F84306460F4673
:1026A0009046994606B11FB96FF01500BDE8F88352
:1026B0004C20FFF754F9054615B96FF00B00F5E70C
:1026C00043463A46AFF654112846CDF8009005F03F
:1026D00069FE0446002C6ED02846FFF737F940F219
:1026E0003111601A8C4274D030DC692C7CD015DC3E
:1026F000092C7AD009DCA4F10200072877D2DFE8A0
:1027000000F05C9797615D6263000B2C74D0642CC1
:102710005BD0652C5AD0662C69D150E0B4F5967F19
:1027200056D008DCC82C6ED0C92C6DD0CA2C6CD009
:10273000CB2C7DD14BE0A4F22D10002866D00128CF
:1027400065D0022864D0032872D162E040F2EF1213
:10275000811A904243D017DCB0F5C67F3BD009DC2C
:10276000012857D0C32858D0A0F22710D8B3642826
:102770005ED12FE0A0F28D10C0B301282CD002282A
:102780002BD0032854D129E0B1F5967F28D008DC5E
:10279000012944D0642943D0C8293CD0C92947D154
:1027A00042E0A1F22D11E1B101291BD002293CD058
:1027B00003293DD135E03EE00BE000BF00BF6FF0E4
:1027C0000D0073E700BF00BF00BF00BF00BF00BF28
:1027D00000BF00BF00BF00BF00BF00BF00BF00BF01
:1027E00000BF00BF05E017E009E00BE016E01FE0C6
:1027F00002E06FF0150059E76FF00A0056E76FF03E
:102800000B0053E700BF00BF00BF00BF00BF00BF09
:1028100000BF00BF00BF00BF00BF00BF00BF00BFC0
:1028200000BF4FF0FF3041E700BF6FF00A003DE707
:102830004FF0FF303AE73560002037E710B5044627
:1028400004B910BD206805F0D7FD2068FFF77EF8B9
:102850000020206000BFF4E72DE9F04105460E4658
:10286000174605B11EB96FF01500BDE8F0813A4674
:102870003146286805F00EFF04460CB90020F4E745
:1028800040F23111601A8C4272D030DC692C7CD05D
:1028900015DC092C7AD009DCA4F10200072877D2D4
:1028A000DFE800F05A94945F5B6061000B2C71D0FC
:1028B000642C59D0652C58D0662C69D14EE0B4F503
:1028C000967F54D008DCC82C6BD0C92C6AD0CA2C97
:1028D00069D0CB2C7AD149E0A4F22D10002863D026
:1028E000012862D0022861D003286FD15FE040F256
:1028F000EF12811A904241D017DCB0F5C67F39D073
:1029000009DC012854D0C32855D0A0F22710D8B331
:1029100064285BD12DE0A0F28D10C0B301282AD02D
:10292000022829D0032851D127E0B1F5967F26D07F
:1029300008DC012941D0642940D0C82939D0C929EF
:1029400044D13FE0A1F22D11D1B1012919D00229C2
:1029500039D003293AD132E000BF00BF6FF00D003B
:1029600083E700BF00BF00BF00BF00BF00BF00BFC4
:1029700000BF00BF00BF00BF00BF00BF00BF00BF5F
:1029800000BF6FF0150070E714E006E008E013E008
:102990001CE0FFE76FF00A0067E76FF00B0064E7E9
:1029A00000BF00BF00BF00BF00BF00BF00BF00BF2F
:1029B00000BF00BF00BF00BF00BF00BF00BF4FF09F
:1029C000FF3052E700BF6FF00A004EE74FF0FF30D4
:1029D0004BE72DE9FC4705460E4691469A461DB940
:1029E0006FF01500BDE8FC873046002101F034FE91
:1029F0000746CDE9009A3A460B46286805F05EFE88
:102A000004460CB90020EDE740F23111601A8C4207
:102A100072D030DC692C7CD015DC092C7AD009DC32
:102A2000A4F10200072877D2DFE800F05A94945FFF
:102A30005B6061000B2C71D0642C59D0652C58D090
:102A4000662C69D14EE0B4F5967F54D008DCC82CD2
:102A50006BD0C92C6AD0CA2C69D0CB2C7AD149E072
:102A6000A4F22D10002863D0012862D0022861D082
:102A700003286FD15FE040F2EF12811A904241D0FB
:102A800017DCB0F5C67F39D009DC012854D0C32843
:102A900055D0A0F22710D8B364285BD12DE0A0F266
:102AA0008D10C0B301282AD0022829D0032851D183
:102AB00027E0B1F5967F26D008DC012941D06429B2
:102AC00040D0C82939D0C92944D13FE0A1F22D1105
:102AD000D1B1012919D0022939D003293AD132E0E4
:102AE00000BF00BF6FF00D007CE700BF00BF00BF5C
:102AF00000BF00BF00BF00BF00BF00BF00BF00BFDE
:102B000000BF00BF00BF00BF00BF6FF0150069E746
:102B100014E006E008E013E01CE0FFE76FF00A00B5
:102B200060E76FF00B005DE700BF00BF00BF00BFB4
:102B300000BF00BF00BF00BF00BF00BF00BF00BF9D
:102B400000BF00BF00BF4FF0FF304BE700BF6FF08A
:102B50000A0047E74FF0FF3044E7014609B900207B
:102B600070470A680AB90020FAE70120F8E700B5C3
:102B700003461846FFF7F1FF08B9002000BD1868AA
:102B80000069FBE72DE9F04F89B081468A46164679
:102B90001C46DDF848B0B9F1000F04D16FF0150004
:102BA00009B0BDE8F08FBBF1000F15D12046E11749
:102BB00001F052FD0746884601200021029152464D
:102BC000CDE90078CDE903160590AFF65861484687
:102BD00001F0CFFA05461AE02046E11701F03CFD6E
:102BE000074688462046E11701F036FDCDE906018B
:102BF0000120CDE90278CDE9046006985246CDE97E
:102C00000001AFF69061484601F0B3FA0546002D89
:102C100070D040F23111681A8D4278D030DC692DC5
:102C20006BD015DC092D69D009DCA5F1020007285D
:102C300079D2DFE800F05A9696655B6667000B2D47
:102C400073D0642D5FD0652D5ED0662D6BD14EE0C4
:102C5000B5F5967F5AD008DCC82D6DD0C92D6CD043
:102C6000CA2D6BD0CB2D7CD14FE0A5F22D100028C2
:102C700065D0012864D0022863D0032871D161E0B7
:102C800040F2EF12811A904247D017DCB0F5C67FB0
:102C90003FD009DC012856D0C32857D0A0F2271016
:102CA00050B364285DD133E0A0F28D1038B3012811
:102CB00030D002282FD0032853D12DE0B1F5967FD4
:102CC0002CD008DC012943D0642942D0C8293BD04C
:102CD000C92946D141E0A1F22D1101B301291FD02C
:102CE00002293BD003293CD134E000BF00BF6FF084
:102CF0000D0055E738E00AE027E019E01BE026E088
:102D000000BF00BF00BF00BF00BF00BF00BF00BFCB
:102D100000BF00BF00BF00BF00BF00BF00BF00BFBB
:102D20006FF015003CE71CE0FFE76FF00A0037E7A3
:102D30006FF00B0034E700BF00BF00BF00BF00BF53
:102D400000BF00BF00BF00BF00BF00BF00BF00BF8B
:102D500000BF00BF4FF0FF3022E700BF6FF00A0056
:102D60001EE74FF0FF301BE7002019E72DE9F04F79
:102D700089B081468A4616461C46DDF84CB0B9F14A
:102D8000000F04D16FF0150009B0BDE8F08F129864
:102D900090B92046E11701F05FFC884600210291BE
:102DA0005246CDE9046BCDE900080391FD49484640
:102DB00001F0DFF9054615E02046E11701F04CFC73
:102DC000074688462046E11701F046FCCDE905B0EC
:102DD000079152468DE883010496F249484601F076
:102DE000C8F90546002D70D040F23111681A8D42A5
:102DF00078D030DC692D6BD015DC092D69D009DC69
:102E0000A5F10200072879D2DFE800F05A9696650E
:102E10005B6667000B2D73D0642D5FD0652D5ED08F
:102E2000662D6BD14EE0B5F5967F5AD008DCC82DE3
:102E30006DD0C92D6CD0CA2D6BD0CB2D7CD14FE07D
:102E4000A5F22D10002865D0012864D0022863D097
:102E5000032871D161E040F2EF12811A904247D00D
:102E600017DCB0F5C67F3FD009DC012856D0C32857
:102E700057D0A0F2271050B364285DD133E0A0F200
:102E80008D1038B3012830D002282FD0032853D119
:102E90002DE0B1F5967F2CD008DC012943D06429C0
:102EA00042D0C8293BD0C92946D141E0A1F22D1119
:102EB00001B301291FD002293BD003293CD134E0C2
:102EC00000BF00BF6FF00D005EE738E00AE027E0CA
:102ED00019E01BE026E000BF00BF00BF00BF00BF3D
:102EE00000BF00BF00BF00BF00BF00BF00BF00BFEA
:102EF00000BF00BF00BF6FF0150045E71CE0FFE713
:102F00006FF00A0040E76FF00B003DE700BF00BF25
:102F100000BF00BF00BF00BF00BF00BF00BF00BFB9
:102F200000BF00BF00BF00BF00BF4FF0FF302BE766
:102F300000BF6FF00A0027E74FF0FF3024E70020C2
:102F400022E710B5044604B910BD206801F040F92D
:102F50000020206000BFF7E770B5054615B96FF097
:102F6000150070BD286801F070F804460CB9002007
:102F7000F7E740F23111601A8C4272D030DC692CD4
:102F80007CD015DC092C7AD009DCA4F102000728DA
:102F900077D2DFE800F05A94945F5B6061000B2CFD
:102FA00071D0642C59D0652C58D0662C69D14EE074
:102FB000B4F5967F54D008DCC82C6BD0C92C6AD0ED
:102FC000CA2C69D0CB2C7AD149E0A4F22D1000286C
:102FD00063D0012862D0022861D003286FD15FE05E
:102FE00040F2EF12811A904241D017DCB0F5C67F53
:102FF00039D009DC012854D0C32855D0A0F22710BD
:10300000D8B364285BD12DE0A0F28D10C0B30128A5
:103010002AD0022829D0032851D127E0B1F5967F84
:1030200026D008DC012941D0642940D0C82939D0F4
:10303000C92944D13FE0A1F22D11D1B1012919D004
:10304000022939D003293AD132E000BF00BF6FF026
:103050000D0086E700BF00BF00BF00BF00BF00BF7C
:1030600000BF00BF00BF00BF00BF00BF00BF00BF68
:1030700000BF00BF6FF0150073E714E006E008E042
:1030800013E01CE0FFE76FF00A006AE76FF00B0047
:1030900067E700BF00BF00BF00BF00BF00BF00BFA9
:1030A00000BF00BF00BF00BF00BF00BF00BF00BF28
:1030B0004FF0FF3055E700BF6FF00A0051E74FF0C7
:1030C000FF304EE770B5054615B96FF0150070BDBD
:1030D000286801F092F804460CB90020F7E740F2A6
:1030E0003111601A8C4275D030DC692C7DD015DC32
:1030F000092C7BD009DCA4F10200072878D2DFE894
:1031000000F05D9999625E6364000B2C76D0642CAC
:103110005CD0652C5BD0662C6AD151E0B4F5967F0B
:1031200057D008DCC82C70D0C92C6FD0CA2C6ED0F8
:10313000CB2C7FD14CE0A4F22D10002868D00128C0
:1031400067D0022866D0032874D164E040F2EF1201
:10315000811A904244D017DCB0F5C67F3CD009DC20
:10316000012859D0C3285AD0A0F22710E0B3642810
:1031700060D130E0A0F28D10C8B301282DD0022814
:103180002CD0032856D12AE0B1F5967F29D00BDC4C
:10319000012946D0642945D0C8293ED0C92949D142
:1031A00044E017E0741D0008A1F22D11D1B10129EE
:1031B00019D002293BD003293CD134E000BF00BF25
:1031C0006FF00D0083E700BF00BF00BF00BF00BF6E
:1031D00000BF00BF00BF00BF00BF00BF00BF00BFF7
:1031E00000BF00BF00BF06E018E00AE00CE017E0F7
:1031F00020E003E009E06FF0150068E76FF00A00D7
:1032000065E76FF00B0062E700BF00BF00BF00BFC3
:1032100000BF00BF00BF00BF00BF00BF00BF00BFB6
:1032200000BF00BF00BF4FF0FF3050E700BF6FF09E
:103230000A004CE74FF0FF3049E72DE9FC47824692
:103240000C46BAF1000F03D16FF01500BDE8FC8702
:103250002046E11701F000FA05460E462046E11728
:1032600001F0FAF90746CDE900563A460B46DAF87E
:10327000000000F0D7FF8146B9F1000F01D1002016
:10328000E4E740F23111A9EB0100894570D03ADC46
:10329000B9F1690F6DD01ADCB9F1090F6AD009DCF8
:1032A000A9F10200072867D2DFE800F0679E9E6C54
:1032B000686D6E00B9F10B0F7AD0B9F1640F64D06C
:1032C000B9F1650F62D0B9F1660F55D157E0B9F584
:1032D000967F5DD00CDCB9F1C80F70D0B9F1C90F81
:1032E0006ED0B9F1CA0F6CD0B9F1CB0F7CD14EE0E2
:1032F000A9F22D10002865D0012864D0022863D0DF
:10330000032871D161E040F2EF12811A904246D059
:1033100017DCB0F5C67F3ED009DC012856D0C328A3
:1033200057D0A0F2271030B364285DD132E0A0F26C
:103330008D10D0B301282FD002282ED0032853D1CE
:103340002CE0B1F5967F2BD008DC012943D064290D
:1033500042D0C8293BD0C92946D141E0A1F22D1164
:10336000F9B101291ED002293BD003293CD134E018
:103370000FE020E022E02BE036E000BF00BF6FF05E
:103380000D0063E700BF00BF00BF00BF00BF00BF6C
:1033900000BF00BF00BF00BF00BF00BF00BF00BF35
:1033A00000BF00BF6FF0150050E713E000E006E03B
:1033B0006FF00A004AE76FF00B0047E700BF00BF5D
:1033C00000BF00BF00BF00BF00BF00BF00BF00BF05
:1033D00000BF00BF00BF00BF00BF4FF0FF3035E7A8
:1033E00000BF6FF00A0031E74FF0FF302EE72DE904
:1033F000F8430546894616461DB96FF01500BDE82D
:10340000F883042E02D26FF01500F8E73046FEF77D
:10341000A6FA044614B96FF00B00F0E7B820FEF7E7
:103420009EFA8046B8F1000F05D12046FEF78EFACD
:103430006FF00B00E3E7B00809F0FF022346FE49F6
:103440000090404600F0FDFB0746002F67D0404645
:10345000FEF77CFA2046FEF779FA40F23111781A2D
:103460008F4273D02FDC692F7DD015DC092F7BD0E4
:1034700009DCA7F10200072878D2DFE800F05B95AD
:1034800095605C6162000B2F72D0642F5AD0652F5B
:1034900059D0662F6AD14FE0B7F5967F55D008DC3A
:1034A000C82F6CD0C92F6BD0CA2F6AD0CB2F7BD13D
:1034B0004AE0A7F22D1088B3012864D0022863D017
:1034C000032871D161E040F2EF12811A904243D09B
:1034D00017DCB0F5C67F3BD009DC012856D0C328E5
:1034E00057D0A0F22710E8B364285DD12FE0A0F2F6
:1034F0008D10D0B301282CD002282BD0032853D113
:1035000029E0B1F5967F28D00ADC012943D064294F
:1035100042D0C8293BD0C92946D141E032E046E03B
:10352000A1F22D11D1B1012919D0022939D00329D5
:103530003AD132E000BF00BF6FF00D005FE700BF7F
:1035400000BF00BF00BF00BF00BF00BF00BF00BF83
:1035500000BF00BF00BF00BF00BF00BF00BF6FF0D3
:1035600015004CE714E006E008E013E01CE0FFE77C
:103570006FF00A0043E76FF00B0040E700BF00BFA9
:1035800000BF00BF00BF00BF00BF00BF00BF00BF43
:1035900000BF00BF00BF00BF00BF4FF0FF302EE7ED
:1035A00000BF6FF00A002AE74FF0FF3027E7C5F8A9
:1035B00000806C60002022E72DE9FC5F06468A4609
:1035C000934699461EB96FF01500BDE8FC9F282070
:1035D000FEF7C5F9054615B96FF00B00F5E748464B
:1035E0004FEAE97101F038F85A46CDE90001514639
:1035F000284600F0D8FB0446002C6ED02846FEF783
:10360000A5F940F23111601A8C4274D030DC692C7B
:103610007CD015DC092C7AD009DCA4F10200072843
:1036200077D2DFE800F05C9797615D6263000B2C56
:1036300074D0642C5BD0652C5AD0662C69D150E0D4
:10364000B4F5967F56D008DCC82C6ED0C92C6DD04E
:10365000CA2C6CD0CB2C7DD14BE0A4F22D100028CD
:1036600066D0012865D0022864D0032872D162E0B8
:1036700040F2EF12811A904243D017DCB0F5C67FBA
:103680003BD009DC012857D0C32858D0A0F227101E
:10369000D8B364285ED12FE0A0F28D10C0B301280A
:1036A0002CD002282BD0032854D129E0B1F5967FE5
:1036B00028D008DC012944D0642943D0C8293CD053
:1036C000C92947D142E0A1F22D11E1B101291BD056
:1036D00002293CD003293DD135E03EE00BE000BF9C
:1036E00000BF6FF00D0070E700BF00BF00BF00BF5C
:1036F00000BF00BF00BF00BF00BF00BF00BF00BFD2
:1037000000BF00BF00BF00BF05E017E009E00BE00D
:1037100016E01FE002E06FF0150056E76FF00A00B8
:1037200053E76FF00B0050E700BF00BF00BF00BFC2
:1037300000BF00BF00BF00BF00BF00BF00BF00BF91
:1037400000BF00BF00BF4FF0FF303EE700BF6FF08B
:103750000A003AE74FF0FF3037E73560002034E7E2
:1037600070B5044604B970BD2568A86928B1A86978
:1037700000F043FDA86900F02BFD2068FEF7E6F895
:103780000020206000BFEEE770B505460E4605B18B
:1037900016B96FF0150070BD3168286800F048FB5D
:1037A00004460CB90020F6E740F23111601A8C4251
:1037B00075D030DC692C7CD015DC092C7BD009DC81
:1037C000A4F10200072877D2DFE800F05D99996242
:1037D0005E6364000B2C76D0642C5CD0652C5BD0CF
:1037E000662C69D151E0B4F5967F57D008DCC82C1F
:1037F00070D0C92C6FD0CA2C6ED0CB2C7FD14CE0AE
:10380000A4F22D10002868D0012867D0022866D0C5
:10381000032874D164E040F2EF12811A904244D040
:103820001ADCB0F5C67F3CD00CDC012859D0C32887
:103830005AD0A0F2271001E0741D0008D0B364280C
:103840005DD12DE0A0F28D10B8B301282AD0022856
:1038500029D0032853D127E0B1F5967F26D008DC84
:10386000012943D0642942D0C8293BD0C92946D177
:1038700041E0A1F22D11D1B1012919D002293BD08B
:1038800003293CD134E000BF00BF6FF00D0082E798
:1038900000BF00BF00BF00BF00BF00BF00BF00BF30
:1038A00000BF00BF00BF00BF00BF00BF00BF00BF20
:1038B00006E00BE017E00CE021E016E003E009E091
:1038C0006FF0150067E76FF00A0064E76FF00B0018
:1038D00061E700BF00BF00BF00BF00BF00BF00BF67
:1038E00000BF00BF00BF00BF00BF00BF00BF00BFE0
:1038F0004FF0FF304FE700BF6FF00A004BE74FF08B
:10390000FF3048E770B5054615B96FF0150070BD7A
:10391000286800F0E9FA04460CB90020F7E740F205
:103920003111601A8C4272D030DC692C7CD015DCED
:10393000092C7AD009DCA4F10200072877D2DFE84D
:1039400000F05A94945F5B6061000B2C71D0642C82
:1039500059D0652C58D0662C69D14EE0B4F5967FCD
:1039600054D008DCC82C6BD0C92C6AD0CA2C69D0C2
:10397000CB2C7AD149E0A4F22D10002863D0012885
:1039800062D0022861D003286FD15FE040F2EF12CD
:10399000811A904241D017DCB0F5C67F39D009DCDE
:1039A000012854D0C32855D0A0F22710D8B36428DA
:1039B0005BD12DE0A0F28D10C0B301282AD00228DF
:1039C00029D0032851D127E0B1F5967F26D008DC15
:1039D000012941D0642940D0C82939D0C92944D10E
:1039E0003FE0A1F22D11D1B1012919D0022939D01E
:1039F00003293AD132E000BF00BF6FF00D0086E727
:103A000000BF00BF00BF00BF00BF00BF00BF00BFBE
:103A100000BF00BF00BF00BF00BF00BF00BF00BFAE
:103A20006FF0150073E714E006E008E013E01CE017
:103A3000FFE76FF00A006AE76FF00B0067E700BF6F
:103A400000BF00BF00BF00BF00BF00BF00BF00BF7E
:103A500000BF00BF00BF00BF00BF00BF4FF0FF307E
:103A600055E700BF6FF00A0051E74FF0FF304EE717
:103A700070B5044614B96FF0150070BD206800F0F1
:103A80003AFA054615B16FF00F00F6E70020F4E7AB
:103A900070B5044600250CB9002070BD04F000404C
:103AA00060B944F0004004F042F80546039E3246F7
:103AB00029463048006804F013F803E0204604F07B
:103AC00036F805461DB12146284605F073F828460C
:103AD000E3E72DE9F04106460C46002504F00040DE
:103AE00068B944F00041304604F09DF80546059F52
:103AF0003A4629461F48006803F0F2FF04E02146D9
:103B0000304604F090F805462846BDE8F08170B5CF
:103B100004460D462A4621461648006803F0E0FF99
:103B200070BD70B500F084FD4FF47A730024A0FBE3
:103B3000032501FB035100FB0411A2FB030501FB5C
:103B4000035102FB041170BD10B500F071FD10BDF2
:103B500070B504462046E11700F07EFD054601F0F1
:103B60002BF870BD10B501F069FD10BD10B501F066
:103B700098FD10BD9000002042684A6008604268CD
:103B8000116041607047D0E900121160D0E9002156
:103B9000516040600060704770B5054600BF04F09A
:103BA00007FF064600BFF948006804460BE0AC4238
:103BB00007D100BF304604F0FFFE00BF40F24C408A
:103BC00070BD20680446F1488442F0D100BF304601
:103BD00004F0F2FE00BF40F24D40F1E7074600243A
:103BE0003D462DE04FF0FF32134605F1900001F005
:103BF000B6FF064616B1304604F006FB00BF04F0DF
:103C0000D7FE804600BFA86804462046FFF7BBFFEA
:103C10002C61002084F8200000BF404604F0CCFE58
:103C200000BFD4E90210884700BF04F0C1FE8046FF
:103C300000BF0020286100BF404604F0BDFE00BF69
:103C4000D0E72DE9F04786B004460E461746984661
:103C5000DDF8389000BF1CB9062006B0BDE8F0873B
:103C600000BF00BF0EB90620F7E700BF00BFB8F1E4
:103C7000000F01D10620F0E700BF3E2F02DB40F22B
:103C80003110EAE7B9F1000F02D14FF49670E4E782
:103C90002046FFF781FF054640F24C40854200D1A7
:103CA000DBE7204600F094F904F1080000F090F9F9
:103CB0000020206166610022B5A104F1900001F0AE
:103CC0001DFE05460DB12846C7E700BF04F070FE93
:103CD000824600BF2146AD48FFF74EFF00BF504669
:103CE00004F06AFE00BF0120AD49CDE90289CDE9AB
:103CF0000410002100913B4622460191314604F117
:103D0000180000F0D8FE054695B100BF04F050FE43
:103D1000824600BF2046FFF736FF00BF504604F042
:103D20004BFE00BF04F1900001F0F3FD284694E73C
:103D3000002092E72DE9F04707468846BC6B4546D0
:103D400000BF04F035FE814600BF2869A04206D1BD
:103D500000BF484604F030FE00BFBDE8F08794F88D
:103D60002000012805D100BF484604F025FE00BF11
:103D7000F3E72046FFF707FF214605F10800FFF7AC
:103D8000FBFEE561012084F8200000BF484604F0F6
:103D900013FE00BF05F1900001F0C9FE064606B112
:103DA000DBE700BFD9E72DE9F04387B004460D46B5
:103DB0009146DDE90E671CB9062007B0BDE8F08327
:103DC0000DB90620F9E700BF0CB90620F5E700BFE2
:103DD00000BF0DB90620F0E700BF2821204604F0FF
:103DE000E9FE204600F0F4F8A560C4F80C90C4E9A0
:103DF00004670020E061002186EA01007940084361
:103E000014D00020CDE9044002900390D4E90401CD
:103E1000644ACDE9000164A104F1180000F0A9F999
:103E20008046B8F1000F01D04046C6E70020C4E745
:103E30002DE9F04105460C4600BF15B90620BDE846
:103E4000F08100BF00BF0CB90620F8E700BF00BF3B
:103E500004F0AEFD074600BF0023D4E9041059402A
:103E6000584001432FD12869A04207D100BF3846EE
:103E700004F0A2FD00BF4FF48A60E0E794F8200050
:103E8000012807D100BF384604F096FD00BF40F27C
:103E90004E40D4E72046FFF776FE214605F10800A4
:103EA000FFF76AFEE561012084F8200000BF384674
:103EB00004F082FD00BF05F1900001F038FE0646D7
:103EC00086B13046BBE7A069846300BF384604F082
:103ED00073FD00BF2946A06900F0F1F906460EB156
:103EE0003046ACE70020AAE710B504462146314829
:103EF000FFF79EFF10BD70B5044600BF0CB9062049
:103F000070BD00BFE5695DB90023D4E904105940D4
:103F10005840014302D0A06900F06FF90020EFE79C
:103F200000BF04F045FD064600BF2869A04207D146
:103F300000BF304604F040FD00BF4FF48A60DFE769
:103F400094F82000012807D100BF304604F034FD6A
:103F500000BF40F24E40D3E72046FFF714FE00209A
:103F6000E06100BF304604F027FD00BF0020C7E736
:103F700008B5064800F02CF84FF440700E4B1422A0
:103F80000EA100900B48FFF75CFE08BD88000020E2
:103F9000574F524B51554555452D53454D00000047
:103FA000DD3B0008353D0008574F524B2D54494D1D
:103FB000455200007012002028130020444546415D
:103FC000554C542D574F524B515545554500000007
:103FD00000604060704700002DE9F047024615463A
:103FE0001746D1E90834386811E00646DFF85894DE
:103FF000D6E906ACD9E90089BAEB08086CEB090CE4
:10400000B3EB080874EB0C0C00D202E00068A84285
:10401000EBD100BF00BFD0F804C0C1F804C00860F5
:10402000D0F804C0CCF80010416000BFBDE8F087B4
:10403000816849B100BFD0E900231A60D0E900329D
:104040005A6000BF00228260704730B587B00446D6
:1040500000BF14B9062007B030BD00BF0094012096
:104060008DF8040018226946F84804F013FB054651
:104070002846F0E72DE9F84F0446894692460AADF6
:1040800095E8E0090020009000BF14B90620BDE8C3
:10409000F88F00BF00BFB9F1000F01D10620F6E78D
:1040A00000BF00BFBAF1000F01D10620EFE700BF4B
:1040B000002185EA01007140084301D10520E6E7AF
:1040C000691C56F1004001D30520E0E7791C58F146
:1040D000004001D30520DAE7C4F80C90C4F810A022
:1040E000C4E90A56C4E90C78002121626162A16129
:1040F000E161002084F83D00A060109884F83E0043
:10410000C4F814B0204600F062FA052084F83C00A0
:104110000F9818B12046FFF798FF00900098B6E777
:104120002DE9FF4F87B08046894614AC94E8F00C27
:1041300001208DE8F00C069049464046099AFFF7A9
:1041400099FF0BB0BDE8F08F30B587B0044600BFD3
:1041500014B9062007B030BD00BF009406208DF8CA
:10416000040018226946B94804F094FA0546284626
:10417000F0E72DE9FF4F87B0814614AD95E8E009DF
:1041800000BFB9F1000F03D106200BB0BDE8F08FDE
:1041900000BF402003F0CBFC04460CB96920F4E7D3
:1041A000022119988DE8E009CDE905012046DDE9F5
:1041B0000812FFF75FFF8246BAF1000F04D02046D5
:1041C00003F029FD5046E0E7C9F800405046DCE71F
:1041D00030B587B0044600BF14B9062007B030BD23
:1041E00000BF009407208DF8040018226946974804
:1041F00004F050FA05462846F0E730B587B004468B
:1042000000BF14B9062007B030BD00BF00940220E3
:104210008DF80400182269468C4804F03BFA0546E4
:104220002846F0E72DE9F04387B0804614461D4646
:10423000DDE90E6700BFB8F1000F03D1062007B01B
:10424000BDE8F08300BF002184EA01006940084313
:1042500001D10520F3E7611C55F1004001D3052091
:10426000EDE7711C57F1004001D30520E7E7CDF8D9
:104270000080CDE90245CDE9046703208DF80400F4
:1042800018226946714804F005FA81464846D6E787
:1042900070B586B004460D4600BF14B9062006B0BE
:1042A00070BD00BF0094049504208DF8040018220E
:1042B0006946664804F0EEF906463046EFE770B509
:1042C00086B004460D4600BF14B9062006B070BD86
:1042D00000BF0094049505208DF80400182269465B
:1042E0005A4804F0D7F906463046EFE72DE9F04783
:1042F000574880468146D9F8007034E03C46524920
:10430000D4E90620D1E90031D51A60EB010600217D
:104310000846491BB04124DB2046D4E904219047DC
:104320002046FFF785FE0023D4E90C105940584081
:10433000014312D0D4E90C01C4E908014249D4E98F
:104340000820D1E90031D2184841C4E9062040488C
:10435000A0602146FFF740FE04E0002084F83D0005
:1043600000E002E03F684745C8D100BFBDE8F087E4
:1043700070B505460E462C68082E64D2DFE806F0BC
:10438000880424344E885A7394F83C00052800D0E1
:1043900082E094F83D00012800D17DE02A49D4E96B
:1043A0000A20D1E90031D2184841C4E90620D4E9F5
:1043B0000A01C4E908012648A0602146FFF70CFE67
:1043C000012084F83D0067E094F83C00052800D007
:1043D00062E094F83D0000B95EE02046FFF728FE59
:1043E000002084F83D0057E00023D5E90210594031
:1043F0005840014300D14FE094F83C00052800D01C
:104400004AE094F83D0000B146E0D5E90201C4E974
:104410000A01D5E90401C4E90C013DE094F83C002F
:10442000052800D038E094F83D0000B134E0286958
:10443000606131E094F83C00052800D02CE094F84D
:104440003D0038B128E023E078000020780B002000
:104450007000002094F83E00012800D01CE00020ED
:1044600084F83C0018E094F83C00052800D013E0E4
:1044700094F83D0000B10FE094F83E00022800D00F
:104480000AE0002084F83C00204603F0C4FB03E06F
:10449000012003F0B9FE00BF00BF70BD10B5044697
:1044A000207905280CD102212046FFF761FF042165
:1044B0002046FFF75DFF01212046FFF759FF03E08B
:1044C00021792046FFF754FF10BD8AB05DE003A8B4
:1044D00004A94FF0FF321346CDE900103D4804F027
:1044E000EDF8824600F098F804460D46BAF1000F48
:1044F00002D1394830C002E0012003F085FE04A853
:10450000FFF7CCFF38E035480068834600F084F8B8
:1045100006460F46DBE90632B3EB060862EB0709F5
:1045200000210846B1EB080170EB090020DA03A86E
:1045300004A942464B46CDE90010264804F0BEF8D7
:10454000824600F069F804460D46BAF5C97F02D1EB
:10455000214830C00EE0BAF1000F05D11E4830C02E
:1045600004A8FFF79BFF05E0012003F04DFE01E0EA
:104570001948C0C0FFF7BAFE18480168814201D14E
:10458000012100E000210029BDD0A0E700B587B0DF
:10459000124800F01CF814201823114A11A10090B1
:1045A0000C4803F013FF012011494FF49672114B90
:1045B000CDE90232CDE904100021009105230A461D
:1045C00001910DA10F4800F076FA07B000BD006020
:1045D00040607047780B00207800002070000020B9
:1045E000C80B002074696D65725F71756575650033
:1045F000CB440008C806002074696D65725F746161
:10460000736B00005006002010B50120002100F05F
:10461000B3F801F016FD10BD70B504F0C9F90646F7
:104620003E4830C8304604F0C7F92046294670BDE0
:104630002DE9F041FFF7F0FF4FF47A730026A0FB5D
:10464000034701FB037100FB061164223346204639
:1046500004F066FABDE8F0812DE9F04705460E4604
:104660004FF47A7200232846314604F059FA1FFAB3
:1046700082F94FF47A7200232846314604F050FA4A
:1046800064234FF0000CA0FB037A01FB03A100FBA5
:104690000C180A24002C01DD601E00E0002084B20A
:1046A00009EB0400642148434FF47A7190FBF1F068
:1046B000C71948EBE07838464146BDE8F0872DE958
:1046C000F04705460E46642200232846314604F092
:1046D00027FA9146642200232846314604F020FA46
:1046E0004FF47A730022A0FB037A01FB03A100FBC5
:1046F000021800240CB1601E00E00020044609EB03
:1047000004004FF47A7148436421B0FBF1F1CF19F2
:1047100048F1000838464146BDE8F08760000020B7
:1047200075480060406000BF70472DE9F0410646C3
:1047300014461D46002184EA0100694008430ED05A
:104740006E48D0E9001009196841C6E90E10C6E9A3
:104750001045694F3146384600F09DF8B764BDE812
:10476000F08170B50446A56C2DB104F1300000F065
:104770008BF80020A06470BD2DE9F84F07468846ED
:1047800000BF04F015F9009000BF5C48D0E90010AC
:10479000C91940EB0800594AC2E90010DFF858A1D6
:1047A000DAF8009067E0D14564D0D9F800B0A9F1FB
:1047B0003004524AD4E90E3006CA5D1A60EB020694
:1047C00000210846491BB04153DB94F854000228ED
:1047D00014D0042829D0052802D0062842D137E079
:1047E000002084F85500012084F854002046FFF78B
:1047F000B8FF2146424801F0B9FB37E02046FFF7F9
:10480000B0FF04F1180000F03FF821463C4801F0E9
:10481000ADFB022084F85500012084F854002046A6
:1048200002F00CF80020A06520E02046FFF799FF79
:1048300004F1180000F028F8022084F85500032045
:1048400084F85400204601F0F9FF0020A0650DE037
:10485000032084F85400002084F855002046FFF718
:1048600080FF03E0012003F0CFFC00BF00BFD9466A
:1048700001E001E000E096E700BF00BF009804F00F
:104880009BF800BFBDE8F88FD0E900121160D0E9B5
:104890000021516070472DE9F04702460B4616464D
:1048A0009446D3E91045DCF8000012E0A0F130078F
:1048B000DFF84890D7E90EA1D9E90089BAEB0808DA
:1048C00061EB0901B4EB080875EB010100D202E0CD
:1048D0000068B042EAD100BF03F13001D0F8048093
:1048E000C1F804800860D0F80480C8F80010416066
:1048F00000BFBDE8F08700006800002060000020D5
:104900007801002042684A60086042681160416096
:1049100070472DE9FF4F83B004468A461D46DDF8F7
:104920005CB0DDE91269DDE910780020009000BF7D
:104930001CB9062007B0BDE8F08F00BF00BFBAF178
:10494000000F01D10620F5E700BF00BF149808B999
:104950000620EFE700BF00BF0EB90620EAE700BF60
:10496000B9F1000F02D14FF49670E3E73E2D02DB60
:1049700040F23110DEE700BF04F01AF8029000BFE9
:1049800000BF00BF0020FA49085C38B100BF0298A0
:1049900004F012F800BF4FF47A70CBE700BF3D2D52
:1049A0000FD1F44810F80B0038B100BF029804F0A2
:1049B00003F800BF4FF49A70BCE70120ED4901F8FD
:1049C0000B0000BF029803F0F7FF00BF78212046DC
:1049D00004F0F0F8002187EA010088EA01010843A9
:1049E00001D0676601E032206066606E20660120BB
:1049F00084F87100159818B1012084F8540005E07E
:104A0000032084F85400012084F8200026610196D8
:104A10004FEA8901019804F0CDF8C4F804A084F8A5
:104A2000735084F87450C4F81490169884F8750084
:104A300084F872B01898189000980090206901903E
:104A40000020009009E0CC49019801600198001D08
:104A500001900098401CC0B2009000980028F2D04D
:104A600049463046149B059A03F048FF206000BF7A
:104A700003F09EFF029000BF04F12801BF48FFF73A
:104A800041FF159880B12146BD4801F054FABD4858
:104A90000088032808D100BF029803F08DFF01F0C1
:104AA00089F900BF002045E700BF029803F084FFAA
:104AB00000BF00203EE72DE9FF4F89B006460F46B4
:104AC000904616AC94E8300E002101231B98CDE9E6
:104AD00006318DE8300E0891059042463946304641
:104AE0000C9BFFF716FF0DB0BDE8F08F2DE9FF4FCF
:104AF00089B00446DDF868B0DDE9178A169F00BF6B
:104B00001CB906200DB0BDE8F08F00BFBAF1000F50
:104B100001D10520F6E74FEA8A0003F008F80646BF
:104B20000EB96920EEE7782003F001F88146B9F16B
:104B3000000F04D1304603F06EF86920E2E7C4F8B4
:104B400000900222DDE91B01CDE9062B05910890BA
:104B50001998CDE9026ACDE90078049048460AA97F
:104B60000EC9FFF7D6FE05465DB1042D09D03046CB
:104B700003F051F8484603F04EF800202060284624
:104B8000C0E72846BEE72DE9FF4F87B006460F462F
:104B9000904614AC94E8300E0020CDE903A0CDE996
:104BA000050B8DE830024246394630460A9BFFF736
:104BB0009DFF0BB0BDE8F08F2DE9F04705460E468E
:104BC000002185EA01007140084302D10520BDE8BB
:104BD000F08700BF03F0ECFE814600BF00BF00BFBE
:104BE00000206349085C38B100BF484603F0E4FE8A
:104BF00000BF4FF47A70EAE700BF00BF002400BF97
:104C00006148005D30B100BF484603F0D5FE00BFEB
:104C1000C820DCE705205D4951F8241081F85400D4
:104C20005A4951F824002A463346FFF77EFD57487B
:104C300050F82410524801F0B1F900BF484603F083
:104C4000BBFE01F0B7F800BF03F0B2FE814600BF23
:104C500000204E4951F82080404601F068FC07468C
:104C6000484603F0A9FE3846B1E770B500BF03F02F
:104C70009FFE044600BF00BF0020444951F8205069
:104C800029463F4801F0D3F900BF204603F094FEC7
:104C900001F090F800BF002070BD70B500BF03F0B8
:104CA00087FE054600BF00BF0020384951F820406C
:104CB00000BF284603F080FE00BF204670BD70B5DF
:104CC000044600BF03F074FE064600BF00BF002587
:104CD00000BF2E4850F82500A04209D12A48405D67
:104CE00030B100BF304603F067FE00BFC82070BD82
:104CF00094F85400072832D2DFE800F03204161D81
:104D00001F0F1E00012084F82000032084F85400A7
:104D100021461B4801F042F93AE0012084F82000C6
:104D2000062084F8540033E0012084F82000042099
:104D300084F854002CE000BF00BF94F82000FF2846
:104D400007D100BF304603F037FE00BF4FF4987024
:104D5000CDE794F82000401C84F8200018E000BF44
:104D600000BF304603F028FE00BF40F23310BEE71C
:104D70004C0000204A000020AFBEADDE1806002027
:104D800078010020480000204B0000205400002043
:104D900000BF00BF304603F00FFE01F00BF800BF6C
:104DA0000020A4E710B504460CB9062010BD94F805
:104DB00073003D2802D140F22F10F7E72046FFF79D
:104DC0007EFFF3E770B5044600BF03F0F1FD054632
:104DD00000BF94F85400072834D2DFE800F0340410
:104DE000060E28051D0000BF00BF00BF284603F0C7
:104DF000E3FD00BF40F22D1070BD14F8200F401EDF
:104E0000207014F8200930B9012084F8540021469C
:104E1000FE4801F0ABF81EE014F8200F401E207091
:104E200014F8200910B9052084F8540013E014F890
:104E3000200F401E207014F8200910B9022084F8B9
:104E4000540008E000BF00BF284603F0B5FD00BFD6
:104E500040F23310D0E700BF00BF284603F0ACFD9E
:104E600000F0A8FF00BF0020C6E710B5044600BF51
:104E70000CB9062010BD00BF2046FFF7A3FFF9E7DD
:104E800030B50246002400BF0AB9062030BD00BF7D
:104E900000BF09B90620F9E700BF92F854000728BF
:104EA00002D140F23310F1E71069031D00E0641CE9
:104EB00020CB002DFBD00C600020E7E72DE9F0416E
:104EC00004460E46002500BF03F072FD074600BFF2
:104ED00034B100BF0020CE4951F82000A04208D1D3
:104EE00000BF0020CA4951F8204003F0B6FD054636
:104EF00000E0256855B900BF384603F05DFD00BFEE
:104F0000022003F081F90220BDE8F081D4E9040118
:104F100000EB8100A8420BD200BF384603F04CFDE5
:104F200000BF4FF4966003F06FF94FF49660EBE723
:104F3000D4E9040100EB8100401B8008306000BF11
:104F4000384603F039FD00BF0020DDE72DE9F041D0
:104F500004460E4600BF94F87300B0425DD094F84A
:104F60005400072850D2DFE800F04F04221D231C14
:104F70001E002146A54801F011F884F8736000BFB7
:104F80000020A34951F82000A04204D121469F48A7
:104F900000F0B0FF03E021469C4800F0CCFF002465
:104FA0003AE000BF00BF84F87360002434E000BF23
:104FB00094F8737084F87360204601F0AAFAA06D2B
:104FC000407B02281ED1D4F85880D8F8105095F8AC
:104FD000730094F87310884201DD2C4613E095F8B5
:104FE0007300B8420CD10021284601F007FB0646A9
:104FF00095F87300B04201D02C4604E0002402E092
:10500000002400E0002407E040F2331003F0FCF835
:1050100040F23310BDE8F08100E00024002C9AD16A
:105020000020F7E72DE9F04704460D46164600BF7D
:1050300014B90620BDE8F08700BF00BF0EB90620F6
:10504000F8E700BF94F873003D2802DB4FF4997035
:10505000F0E73D2D02DB4FF49970EBE794F8540034
:10506000072802D140F23310E4E700BF03F0A0FCB0
:10507000814600BF00BF00BF00206649085C38B110
:1050800000BF484603F098FC00BF4FF47A70D1E7A8
:1050900000BF2946204601F0B7FB804684F87450D3
:1050A000454694F87300307029462046FFF74EFFBE
:1050B000074637B100BF484603F07EFC00BF3846C4
:1050C000B8E700BF484603F077FC00F073FE00BF6E
:1050D0000020AFE770B5044600BF0CB9062070BDD4
:1050E00000BF00BF03F064FC054600BF00BF00BF67
:1050F00000204849085C38B100BF284603F05CFC3A
:1051000000BF4FF47A70EAE700BF94F85400072814
:1051100033D2DFE800F032041C051B0D0E0034E032
:10512000012084F854002146384800F01FFF2CE08D
:1051300000BF2046FFF715FB2146344800F016FF5C
:10514000012084F8540084F855001EE000BF20467A
:10515000FFF707FB04F1180000F068FA21462B481E
:1051600000F004FF012084F8540084F85500204624
:1051700001F064FB0020A06507E000BF284603F0B3
:105180001BFC00BF40F23310A9E700BF00BF284658
:1051900003F012FC00F00EFE00BF00209FE72DE997
:1051A000F0410746D7F8248017E0D4F8148025464C
:1051B00028460168814201D1012100E0002151B956
:1051C0002868A0F11806304601F025F92661706ABA
:1051D0006061746201E000202061B8F10004E4D154
:1051E000BDE8F08170B5044600BF03F0E1FB064660
:1051F00000BF00BF002500BF00BF00BF0020054961
:10520000085C78B100BF304606E00000780100205D
:10521000540000204C00002003F0CEFB00BF4FF4F0
:105220007A7070BD00BF14B9F84850F8254094F862
:1052300073003D2807D100BF304603F0BDFB00BF1F
:105240004FF49770EDE794F87500012806D000BF81
:10525000304603F0B1FB00BF0920E2E700BF0020A9
:10526000EA4951F82000A0420BD100BF0020E849D4
:10527000085C30B100BF304603F09EFB00BFC82081
:10528000CFE72046FFF78BFF94F85400072828D279
:10529000DFE800F02704180C191011002146DD4842
:1052A00000F07CFE072084F8540022E0072084F8F8
:1052B00054001EE000BF2046FFF753FA072084F891
:1052C000540016E000BF2046FFF74BFA04F1180027
:1052D00000F0ACF9072084F85400204601F0AEFA43
:1052E00007E000BF304603F067FB00BF40F2331019
:1052F00097E700BF04F1280000F098F900BF30469E
:1053000003F05AFB00F056FD00BF002089E72DE9AD
:10531000F041044600BF03F04BFB074600BF00BF4F
:105320004FF0000800BF00BF00BF0020BA49085C72
:1053300040B100BF384603F03FFB00BF4FF47A7026
:10534000BDE8F08100BF14B9B04850F8284094F887
:1053500073003D2807D100BF384603F02DFB00BF86
:105360004FF49770ECE794F87500022806D000BF60
:10537000384603F021FB00BF0920E1E700BF002011
:10538000A24951F82000A0420BD100BF0020A04943
:10539000085C30B100BF384603F00EFB00BFC820E8
:1053A000CEE794F85400072807D100BF384603F031
:1053B00003FB00BF40F23310C2E72069051D002047
:1053C000286000BF0021924A88180178491C0170AA
:1053D00005F114019148FFF795FA20696860AC6007
:1053E0002868801C28608E4800F0A1FB064600BF9C
:1053F0000021874A88180178491E01704EB100BF0C
:10540000384603F0D9FA00BF022002F0FDFE304614
:1054100096E72046FFF7C3FE94F85400072828D2E9
:10542000DFE800F02804180C191011002146794813
:1054300000F0B4FD072084F854001CE0072084F835
:10544000540018E000BF2046FFF78BF9072084F8CE
:10545000540010E000BF2046FFF783F904F1180064
:1054600000F0E4F8072084F85400204601F0E6F943
:1054700001E000BF00BF00BF04F1280000F0D6F833
:1054800000BF384603F098FA00F094FC00BF0020FB
:1054900056E770B504460D4600BF0CB9062070BD36
:1054A00000BF00BF03F084FA064600BF00BF00BF84
:1054B00000205949085C38B100BF304603F07CFA3F
:1054C00000BF4FF47A70EAE700BF0DB1656601E0F6
:1054D00032206066606E206600BF304603F06CFAD2
:1054E00000BF0020DBE770B505460C4600BF0DB9D4
:1054F000062070BD00BF1CB1012C01D0CB20F8E705
:1055000000BF03F055FA064600BF00BF00BF0020F1
:105510004149085C38B100BF304603F04DFA00BF86
:105520004FF47A70E5E700BF85F8714000BF304660
:1055300003F042FA00BF0020DBE770B504460D46D9
:1055400000BF0CB9062070BD00BF00BF0DB906201A
:10555000F9E700BF00BF03F02BFA064600BF00BF0B
:1055600000BF00202C49085C38B100BF304603F072
:1055700023FA00BF4FF47A70E5E700BF94F871009A
:10558000287000BF304603F017FA00BF0020DAE7AA
:105590002DE9F04104460D46164600BF14B9062019
:1055A000BDE8F08100BF022D01D30520F8E703F02C
:1055B000FFF9074604F1080040F82560384603F07B
:1055C000FBF90020ECE7034600BF0BB9062070474B
:1055D00000BF00BF0AB90620F9E700BF022901D3C6
:1055E0000520F4E703F1080050F8210010600020C6
:1055F000EDE710B5FFF751FB044694F8750002285B
:1056000010D10020FFF783FE0FE0000054000020BF
:105610004B000020780100204C000020800000207A
:10562000A80D00200020FFF7DDFD10BDD0E900121D
:105630001160D0E9002151607047000000B587B0CB
:1056400004205E4908805E4800F01EFCFFF768F801
:1056500000F0D8F802F0B5F85A480060406000BF8A
:10566000002259A15A4800F049F902F01FFE01201A
:105670005849C822584BCDE90232CDE90410002127
:1056800000913D230A46019154A15748FFF713FAB0
:10569000FEF76EFCFEF77AFF00BF00BF002007B0E8
:1056A00000BD10B54548008804280FD100214448AA
:1056B00000F077FB04464D4804604D480460032029
:1056C0003E49088003F085F9012010BD0320FCE766
:1056D00010B503F06DF9044600BF0021454A881853
:1056E0000178491C0170204603F066F9002010BDC6
:1056F00070B503F05DF9064600BF002004463D4842
:10570000005D401E3B4908550846005D18B1304613
:1057100003F052F970BD3848005D18B1304603F00F
:105720004BF9F7E72146264800F03BFB0546304899
:1057300050F82400A84203D1304603F03DF9E9E7D0
:105740002A4840F8245003F03FF9304603F034F97A
:1057500000BFDFE72DE9F047284F00BF03F028F92D
:10576000064600BF39463868884209D100BF304636
:1057700003F022F900BF4FF0FF300146BDE8F0878B
:10578000D7F80090A9F130081D49D8E90E30D1E9C9
:1057900000219C1A60EB010500BF304603F00CF9B4
:1057A00000BF20462946E9E740F2C14000F264709C
:1057B0003830704742F6E060704700004800002033
:1057C00078010020800000207265735F73656D00B2
:1057D000A80D0020657D0008F802002069646C6552
:1057E0005F7461736B000000800200205000002095
:1057F000540000204C0000204B00002068000020D6
:105800006000002010B5204800F03BF81E4808302A
:1058100000F037F81C48103000F033F81A48183000
:1058200000F02FF81848203000F02BF816483030E0
:1058300000F027F81448283000F023F810BD70B5A8
:1058400000BF0020114951F820000469002509E03B
:1058500002CC0F48814203D04FF4966002F0D4FC92
:10586000681CC5B2002DF3D000BF0020074951F8D5
:1058700020000068A04203D24FF4966002F0C4FCFE
:1058800070BD006040607047180600205400002082
:10589000AFBEADDE2DE9F04104460D4616461F466B
:1058A00000BF14B90620BDE8F08100BF00BF0DB9EC
:1058B0000620F8E700BF00BF2460646000BF2661D7
:1058C0006661A5600020207384F8207000BF03F09B
:1058D0006FF8804600BFF74804F1180142684A603B
:1058E000086042681160416000BF00BF404603F09D
:1058F00063F800BF012060730020D4E770B5044650
:105900000D4616460123324629462046FFF7C2FFC0
:1059100070BD70B5044600BF0CB9062070BD00BF55
:1059200000BF03F045F8064600BF00BF00BF0020DF
:10593000E149085C38B100BF304603F03DF800BFD4
:105940004FF47A70EAE700BF607B012806D000BF01
:10595000304603F031F800BF0820DFE794F820005C
:10596000012806D000BF304603F026F800BF09200A
:10597000D4E725460020607304E02968A1F11800EF
:1059800000F09CFD284600F0C5F90028F5D004F190
:10599000180000F0C7F900BF304603F00DF800F022
:1059A00009FA00BF0020B9E72DE9F04105460F468E
:1059B000904600BF15B90620BDE8F08100BF242045
:1059C00002F0B5F804460CB96920F5E70223424617
:1059D00039462046FFF75EFF064626B1204602F014
:1059E0001AF93046E8E72C603046E5E770B5044622
:1059F00000BF0CB9062070BD00BF00BF02F0D8FF89
:105A0000064600BF00BF00BF0020AB49085C38B1AC
:105A100000BF304602F0D0FF00BF4FF47A70EAE7D3
:105A200000BF607B012806D000BF304602F0C4FFF3
:105A300000BF0820DFE794F82000022806D000BF4E
:105A4000304602F0B9FF00BF0920D4E72546002008
:105A5000607304E02968A1F1180000F02FFD2846CA
:105A600000F058F90028F5D004F1180000F05AF9B8
:105A700000BF304602F0A0FF00F09CF900BF2046B6
:105A800002F0C9F80020B6E72DE9F04104460E46C1
:105A900000BF02F08DFF074600BF607B012807D0E2
:105AA00000BF384602F088FF00BF0820BDE8F08143
:105AB00000BF4FF0000800BF2546284600F02AF935
:105AC000D0B12069401C38B900BF384602F074FFDD
:105AD00000BF4FF44870E9E72069401C2061D4E919
